S00F0000556E6F556172742E7372656347
S11300000C9434000C9451000C9451000C94510045
S11300100C9451000C9451000C9451000C94510018
S11300200C9451000C9451000C9451000C94510008
S11300300C9451000C9451000C9451000C945100F8
S11300400C9451000C9451000C94F3000C94510046
S11300500C9451000C9451000C9451000C945100D8
S11300600C9451000C94510011241FBECFEFD8E022
S1130070DEBFCDBF11E0A0E0B1E0E2E1F2E002C0FA
S113008005900D92A031B107D9F721E0A0E1B1E0CC
S113009001C01D92A231B207E1F70E946E000C94D8
S11300A007010C9400001092C50087E68093C400F9
S11300B088E98093C10086E08093C2007894089513
S11300C09091C00095FFFCCF8093C6000895809165
S11300D0C0008823E4F78091C6000895CF93DF938E
S11300E0CDB7DEB764970FB6F894DEBF0FBECDBFB1
S11300F0E9E6F0E08081836080838DB381608DBB0D
S113010078940E94530080E1E0E0F1E0DE0115966E
S113011001900D928A95E1F72FEF3BE782E9215098
S113012030408040E1F700C0000083E30E9460009B
S113013000E010E0E12CF12C80911001909111016C
S1130140892B81F010921101109210010E94670016
S1130150E1E0F0E0EC0FFD1FEE0DFF1D80839FEF4B
S1130160E91AF90A24E0E216F10431F727C0FC0188
S1130170EE0FFF1FEE0FFF1F21E030E02C0F3D1F9D
S1130180E20FF31FE00FF11F3481E1E0F0E0EC0F28
S1130190FD1FE00FF11F2081321309C00F5F1F4FB5
S11301A002C000E010E0043011050CF302C000E0CE
S11301B010E00430110539F0019602C080E090E0AF
S11301C08430910574F30430110511F080E001C00E
S11301D083E0833021F481E30E946000ABCF82E3AB
S11301E00E946000A7CF1F920F920FB60F921124A6
S11301F08F939F9381E090E090931101809310017D
S11302009F918F910F900FBE0F901F901895F894A7
S1050210FFCF1A
S1130212CA57007801020304035C343F8705ABB478
S9030000FC
