S01400005465737452464944726561642E73726563AF
S113000071C000008EC000008CC000008AC00000D7
S113001088C0000086C0000084C0000082C00000C8
S113002080C000007EC000007CC000007AC00000D8
S113003078C0000076C0000074C0000072C00000E8
S113004070C000006EC000006CC000006AC00000F8
S113005068C0000066C0000064C0000062C0000008
S113006060C0000006C500005CC000005AC000006B
S113007058C0000056C0000054C0000052C0000028
S113008050C000004EC000004CC000004AC0000038
S113009048C0000046C0000044C0000042C0000048
S11300A040C000003EC000003CC000003AC0000058
S11300B038C0000036C0000034C0000032C0000068
S11300C030C000002EC000002CC000002AC0000078
S11300D028C0000026C0000024C0000022C0000088
S11300E020C0000011241FBECFEFD1E2DEBFCDBF80
S11300F000E00CBF12E0A0E0B2E0E4ECFAE000E0C3
S11301000BBF02C007900D92A83CB107D9F722E0BB
S1130110A8ECB2E001C01D92AA3CB207E1F7B6D246
S1130120CFC46ECF81B1807F81B982B1806482B93E
S113013082B18F7D82B982E08A95F1F700C082B1E5
S1130140806182B992E09A95F1F700C080B18295FE
S1130150807F92E09A95F1F700C092B19F7E92B9A8
S113016095E09A95F1F7000092B1906192B992E00E
S11301709A95F1F700C090B1807892E09A95F1F7E2
S113018000C092B19F7E92B995E09A95F1F7000074
S11301908111D5CF82B18F7B82B981B18F6081B952
S11301A00895282F22952F708F70611104C092B189
S11301B09F7D92B903C092B1906292B992E09A95F0
S11301C0F1F700C092B1906192B992B1907F922BF5
S11301D092B995E09A95F1F7000092B19F7E92B999
S11301E095E09A95F1F7000092B1906192B992B1BD
S11301F0907F892B82B985E08A95F1F7000082B15E
S11302008F7E82B995E09A95F1F700008BCF08951F
S11302100F931F93CF93DF93EC0118C0853299F4A9
S11302208E010F5F1F4F89818053883020F461E075
S1130230B8DFE8010AC061E085E2B3DF61E08981EB
S1130240B0DFE80102C061E0ACDF21968881811152
S1130250E5CFDF91CF911F910F910895843170F410
S1130260623031F0633031F0613029F4806403C0CE
S11302708C5E01C08C5A60E0806893CF0895CF9360
S1130280C82F2FEF86E791E0215080409040E1F79E
S113029000C0000081B18F6081B981B1806181B9F2
S11302A081B1806281B981B1806481B982B1807F7A
S11302B082B982B18F7E82B982B18F7B82B982B1D9
S11302C08F7D82B900C000C0000082B1806182B914
S11302D082B1826082B925E02A95F1F7000082B1EB
S11302E08F7E82B985E08A95F1F700001BDF60E01C
S11302F08C2F8C6056DF60E088E253DF60E080E0A2
S1130300ADDFCF91089587E084B981E58CBD089570
S11303108EBD0DB407FEFDCF8EB50895CF93C62FC5
S113032095B19E7F95B990E0880F991F8E77F0DF85
S11303308C2FEEDF85B1816085B9CF91089595B199
S11303409E7F95B990E0880F991F8E778068E0DFD3
S113035080E0DEDF95B1916095B908956FE081E0AA
S1130360DDCF0895FBDF6DE88AE2D8DF6EE38BE230
S1130370D5DF6EE18CE2D2DF60E08DE2CFDF60E4B6
S113038085E1CCDF6DE381E1C9DF84E1D8DF982F1B
S1130390937021F4682F636084E1C0CF08954F9275
S11303A05F926F927F928F929F92AF92BF92CF9201
S11303B0DF92EF92FF920F931F93CF93DF93D82F87
S11303C07B01C42F59018C3029F08E3061F0912CBF
S11303D0812C10C00F2EF0E39F2EF02D0F2EF7E787
S11303E08F2EF02D07C06894992494F80F2EF2E113
S11303F08F2EF02D84E0A3DF682F6F7784E08EDFEB
S11304008AE09DDF682F60688AE088DF60E081E031
S113041085DF412C512C32010BC0F701E40DF51D91
S1130420608189E07BDF8FEF481A580A680A780AEE
S11304308C2F90E0A0E0B0E0481659066A067B06CF
S113044060F36D2F81E06ADFDC3031F48DE077DF1B
S1130450682F60688DE062DF0F2EF0EDCF2EF7E09D
S1130460DF2EE12CF12CF02D84E069DFC82FE1E0D0
S1130470CE1AD108E108F10829F080FD03C0892DC6
S11304808C2391F38DE05BDF682F6F778DE046DF7F
S1130490CD28CE28CF2809F45CC086E050DF8B71CC
S11304A009F059C0C821C0FD02C0C1E001C0C2E0CA
S11304B0DC3009F051C08AE042DFD82F8CE03FDF06
S11304C0282F2770A9F08D2F90E00197880F991F8E
S11304D0880F991F880F991F820F911D092E000CF8
S11304E0AA0BBB0BF80180839183A283B38311C051
S11304F08D2F90E0880F991F880F991F880F991FDF
S1130500092E000CAA0BBB0BF80180839183A283F4
S1130510B383D11101C0D1E0D13108F0D0E1C12CB5
S1130520D12C76010CC085010C0D1D1D89E007DF5F
S1130530F8018083FFEFCF1ADF0AEF0AFF0A8D2F3D
S113054090E0A0E0B0E0C816D906EA06FB0658F32E
S113055003C0C3E001C0C3E08C2FDF91CF911F9192
S11305600F91FF90EF90DF90CF90BF90AF909F904E
S11305708F907F906F905F904F900895EF92FF92CD
S11305800F931F93CF93DF9300D01F92CDB7DEB7A5
S1130590182F7B0167E08DE0C1DEF70110838E0127
S11305A00F5F1F4F970141E0B7018CE0F8DE813007
S11305B051F449815A816B817C8140315105610537
S11305C0710519F403C083E001C083E00F900F901C
S11305D00F900F90DF91CF911F910F91FF90EF90AB
S11305E00895EF92FF920F931F93CF93DF9300D060
S11305F01F92CDB7DEB77C0160E08DE08FDE83E92A
S1130600F701808380E281838E010F5F1F4F970182
S113061042E0B7018CE0C3DE813091F407C0F701FA
S1130620E90FF11D308123279F5F02C020E090E095
S11306309430A8F3F701E90FF11D9081291383E0A9
S11306400F900F900F900F90DF91CF911F910F910A
S1130650FF90EF9008951092C50087E68093C40040
S113066088E98093C10086E08093C200789408955D
S11306709091C00095FFFCCF8093C60008958091AF
S1130680C0008823E4F78091C6000895CF93DF93D8
S1130690CDB7DEB762970FB6F894DEBF0FBECDBFFD
S11306A02FEF8BE792E9215080409040E1F700C0A2
S11306B0000081E0E4DD60E082E0D0DD80E092E0F3
S11306C0A7DD2FEF8BE792E9215080409040E1F7BE
S11306D000C00000E9E6F0E08081836080838DB390
S11306E081608DBB7894B7DFEAE0F1E080818360BC
S11306F08083EBE0F1E080818160808360E082E0D0
S1130700ADDD8CE092E084DD61E085E0A7DD88E189
S113071092E07EDDF8DD2FEF83ED90E32150804001
S11307209040E1F700C0000060E081E03ADD1ADEAD
S113073087E305DE823981F460E081E08FDD8EE1BC
S113074092E066DD61E084E089DD8DE292E060DDC7
S113075060E08CE026DD19C08059823080F460E0CE
S113076081E07CDD86E392E053DD61E084E076DDC8
S11307708DE292E04DDD60E08CE013DD06C060E0C8
S113078080E06CDD85E492E043DD2FEF8DE399E4B6
S1130790215080409040E1F700C0000060E081E01B
S11307A000DD8091C8029091C902019709F04AC006
S11307B060E081E0F6DC60E081E050DD85E592E018
S11307C027DD60E08CE0EDDC82E0B9DD682F60625B
S11307D082E0A4DD83E0B3DD682F606883E09EDD02
S11307E0BE016D5F7F4F82E5C9DE8130D1F6CE0157
S11307F00396F7DE8130E1F48FE39CE90197F1F78A
S113080000C0000000E010E00FC0E3E0F0E0EC0FF7
S1130810FD1FE00FF11F808190E09A838983898115
S11308209A8126DF0F5F1F4F0430110574F3B9CF8F
S113083060E081E0B6DC60E085E010DD85E692E012
S1130840E7DCAFCF9FEF23ED80E391502040804061
S1130850E1F700C0000060E081E0A3DC60E082E03A
S1130860FDDC8BE692E0D4DC61E085E0F7DC88E730
S113087092E0CEDC60E08CE094DC93CFCF93DF9306
S113088061E080E0EBDC8EE792E0C2DCCBE0D1E01B
S11308908881826088832FEF83EC99E02150804027
S11308A09040E1F700C000008881817088832FEFB9
S11308B083EC99E0215080409040E1F700C00000B3
S11308C08881826088832FEF87E893E121508040FC
S11308D09040E1F700C00000888118822FEF8FE478
S11308E093EC215080409040E1F700C0000061E0AB
S11308F080E0B4DC8FE892E08BDC60E08CE051DCDB
S11309002FEF83ED90E3215080409040E1F700C049
S11309100000888181608883DF91CF91089560E031
S113092080E09CDC80EA92E073DC61E083E096DCAA
S113093080EB92E06DDC60E08CE033DCEBE0F1E036
S11309408081826080832FEF85EA9EE02150804081
S11309509040E1F700C000008081817080832FEF18
S113096083EC99E0215080409040E1F700C0000002
S11309708081826080832FEF85EA9EE02150804051
S11309809040E1F700C000008081817080832FEFE8
S113099083EC99E0215080409040E1F700C00000D2
S11309A08081826080832FEF85EA9EE02150804021
S11309B09040E1F700C000008081817080832FEFB8
S11309C083EC99E0215080409040E1F700C00000A2
S11309D08081826080832FEF85EA9EE021508040F1
S11309E09040E1F700C00000808181708083089509
S11309F0CF93DF931F921F92CDB7DEB740DE90E016
S1130A009A83898389819A81C39739F481E090E03C
S1130A109093C9028093C80227C089819A81C197A3
S1130A2059F460E081E0BDDB60E084E017DC8EEB2C
S1130A3092E0EEDB23DF18C089819A81C29759F4D2
S1130A4060E081E0AEDB60E083E008DC80EC92E013
S1130A50DFDB65DF09C060E081E0A3DB81E090E0DB
S1130A609093C9028093C8020F900F90DF91CF91A9
S1130A7008951F920F920FB60F9211240BB60F9286
S1130A802F933F934F935F936F937F938F939F9392
S1130A90AF93BF93EF93FF93ABDFFF91EF91BF91C0
S1130AA0AF919F918F917F916F915F914F913F9102
S1130AB02F910F900BBE0F900FBE0F901F901895A3
S1070AC0F894FFCFD4
S1130AC45374617274696E672E2E2E005246494423
S1130AD42052656164657200312E302E30004D4918
S1130AE446415245205243353232763200446574CD
S1130AF46563746564004D4946415245205243354B
S1130B0432327631004E6F207265616465722066FC
S1130B146F756E640053686F7720596F7572204344
S1130B2461726420004572726F7200446174616280
S1130B34617365204E6F7400466F756E64004F7068
S1130B44656E696E6720446F6F72202E2E2E0043EB
S1130B546C6F73696E6720446F6F72202E2E2E00A3
S1130B644163636573732064656E69656420210061
S1130B744C6F636B6564202E2E2E20202000554E6E
S10B0B844C4F434B45440000B3
S9030000FC
